{
	"data": {
		"bytecode": {
			"linkReferences": {},
			"object": "608060405234801561000f575f80fd5b50604051610af4380380610af483398181016040528101906100319190610110565b8160025f6101000a81548173ffffffffffffffffffffffffffffffffffffffff021916908373ffffffffffffffffffffffffffffffffffffffff16021790555080600381905550505061014e565b5f80fd5b5f73ffffffffffffffffffffffffffffffffffffffff82169050919050565b5f6100ac82610083565b9050919050565b6100bc816100a2565b81146100c6575f80fd5b50565b5f815190506100d7816100b3565b92915050565b5f819050919050565b6100ef816100dd565b81146100f9575f80fd5b50565b5f8151905061010a816100e6565b92915050565b5f80604083850312156101265761012561007f565b5b5f610133858286016100c9565b9250506020610144858286016100fc565b9150509250929050565b6109998061015b5f395ff3fe608060405234801561000f575f80fd5b5060043610610034575f3560e01c80635b885ed7146100385780639ecfb3dd14610054575b5f80fd5b610052600480360381019061004d9190610585565b610072565b005b61005c6102f7565b604051610069919061066b565b60405180910390f35b61007f826003548361031c565b6100be576040517f08c379a00000000000000000000000000000000000000000000000000000000081526004016100b5906106de565b60405180910390fd5b5f805f3373ffffffffffffffffffffffffffffffffffffffff1673ffffffffffffffffffffffffffffffffffffffff1681526020019081526020015f20541461013c576040517f08c379a000000000000000000000000000000000000000000000000000000000815260040161013390610746565b60405180910390fd5b606460015410610181576040517f08c379a0000000000000000000000000000000000000000000000000000000008152600401610178906107d4565b60405180910390fd5b6103e88311156101c6576040517f08c379a00000000000000000000000000000000000000000000000000000000081526004016101bd90610862565b60405180910390fd5b825f803373ffffffffffffffffffffffffffffffffffffffff1673ffffffffffffffffffffffffffffffffffffffff1681526020019081526020015f205f82825461021191906108ad565b925050819055506001805f82825461022991906108ad565b9250508190555060025f9054906101000a900473ffffffffffffffffffffffffffffffffffffffff1673ffffffffffffffffffffffffffffffffffffffff166340c10f1933856040518363ffffffff1660e01b815260040161028c92919061090f565b5f604051808303815f87803b1580156102a3575f80fd5b505af11580156102b5573d5f803e3d5ffd5b505050507f30385c845b448a36257a6a1716e6ad2e1bc2cbe333cde1e69fe849ad6511adfe33846040516102ea92919061090f565b60405180910390a1505050565b60025f9054906101000a900473ffffffffffffffffffffffffffffffffffffffff1681565b5f826103288584610332565b1490509392505050565b5f808290505f5b8451811015610375576103668286838151811061035957610358610936565b5b6020026020010151610380565b91508080600101915050610339565b508091505092915050565b5f8183106103975761039282846103aa565b6103a2565b6103a183836103aa565b5b905092915050565b5f825f528160205260405f20905092915050565b5f604051905090565b5f80fd5b5f80fd5b5f819050919050565b6103e1816103cf565b81146103eb575f80fd5b50565b5f813590506103fc816103d8565b92915050565b5f80fd5b5f601f19601f8301169050919050565b7f4e487b71000000000000000000000000000000000000000000000000000000005f52604160045260245ffd5b61044c82610406565b810181811067ffffffffffffffff8211171561046b5761046a610416565b5b80604052505050565b5f61047d6103be565b90506104898282610443565b919050565b5f67ffffffffffffffff8211156104a8576104a7610416565b5b602082029050602081019050919050565b5f80fd5b5f819050919050565b6104cf816104bd565b81146104d9575f80fd5b50565b5f813590506104ea816104c6565b92915050565b5f6105026104fd8461048e565b610474565b90508083825260208201905060208402830185811115610525576105246104b9565b5b835b8181101561054e578061053a88826104dc565b845260208401935050602081019050610527565b5050509392505050565b5f82601f83011261056c5761056b610402565b5b813561057c8482602086016104f0565b91505092915050565b5f805f6060848603121561059c5761059b6103c7565b5b5f6105a9868287016103ee565b935050602084013567ffffffffffffffff8111156105ca576105c96103cb565b5b6105d686828701610558565b92505060406105e7868287016104dc565b9150509250925092565b5f73ffffffffffffffffffffffffffffffffffffffff82169050919050565b5f819050919050565b5f61063361062e610629846105f1565b610610565b6105f1565b9050919050565b5f61064482610619565b9050919050565b5f6106558261063a565b9050919050565b6106658161064b565b82525050565b5f60208201905061067e5f83018461065c565b92915050565b5f82825260208201905092915050565b7f6e6f7420696c6c656769626c65200000000000000000000000000000000000005f82015250565b5f6106c8600e83610684565b91506106d382610694565b602082019050919050565b5f6020820190508181035f8301526106f5816106bc565b9050919050565b7f616c7265616479206d696e7465640000000000000000000000000000000000005f82015250565b5f610730600e83610684565b915061073b826106fc565b602082019050919050565b5f6020820190508181035f83015261075d81610724565b9050919050565b7f746865206e756d626572206f66207573657273206578636565647320746865205f8201527f6c696d6974000000000000000000000000000000000000000000000000000000602082015250565b5f6107be602583610684565b91506107c982610764565b604082019050919050565b5f6020820190508181035f8301526107eb816107b2565b9050919050565b7f746865206d696e74696e67206c696d69742070657220706572736f6e206861735f8201527f206265656e206578636565646564000000000000000000000000000000000000602082015250565b5f61084c602e83610684565b9150610857826107f2565b604082019050919050565b5f6020820190508181035f83015261087981610840565b9050919050565b7f4e487b71000000000000000000000000000000000000000000000000000000005f52601160045260245ffd5b5f6108b7826103cf565b91506108c2836103cf565b92508282019050808211156108da576108d9610880565b5b92915050565b5f6108ea826105f1565b9050919050565b6108fa816108e0565b82525050565b610909816103cf565b82525050565b5f6040820190506109225f8301856108f1565b61092f6020830184610900565b9392505050565b7f4e487b71000000000000000000000000000000000000000000000000000000005f52603260045260245ffdfea264697066735822122024f72825da884aeafababedd99dd3cd837d7a0aaff7022db57d5384a157b94db64736f6c63430008160033",
			"opcodes": "PUSH1 0x80 PUSH1 0x40 MSTORE CALLVALUE DUP1 ISZERO PUSH2 0xF JUMPI PUSH0 DUP1 REVERT JUMPDEST POP PUSH1 0x40 MLOAD PUSH2 0xAF4 CODESIZE SUB DUP1 PUSH2 0xAF4 DUP4 CODECOPY DUP2 DUP2 ADD PUSH1 0x40 MSTORE DUP2 ADD SWAP1 PUSH2 0x31 SWAP2 SWAP1 PUSH2 0x110 JUMP JUMPDEST DUP2 PUSH1 0x2 PUSH0 PUSH2 0x100 EXP DUP2 SLOAD DUP2 PUSH20 0xFFFFFFFFFFFFFFFFFFFFFFFFFFFFFFFFFFFFFFFF MUL NOT AND SWAP1 DUP4 PUSH20 0xFFFFFFFFFFFFFFFFFFFFFFFFFFFFFFFFFFFFFFFF AND MUL OR SWAP1 SSTORE POP DUP1 PUSH1 0x3 DUP2 SWAP1 SSTORE POP POP POP PUSH2 0x14E JUMP JUMPDEST PUSH0 DUP1 REVERT JUMPDEST PUSH0 PUSH20 0xFFFFFFFFFFFFFFFFFFFFFFFFFFFFFFFFFFFFFFFF DUP3 AND SWAP1 POP SWAP2 SWAP1 POP JUMP JUMPDEST PUSH0 PUSH2 0xAC DUP3 PUSH2 0x83 JUMP JUMPDEST SWAP1 POP SWAP2 SWAP1 POP JUMP JUMPDEST PUSH2 0xBC DUP2 PUSH2 0xA2 JUMP JUMPDEST DUP2 EQ PUSH2 0xC6 JUMPI PUSH0 DUP1 REVERT JUMPDEST POP JUMP JUMPDEST PUSH0 DUP2 MLOAD SWAP1 POP PUSH2 0xD7 DUP2 PUSH2 0xB3 JUMP JUMPDEST SWAP3 SWAP2 POP POP JUMP JUMPDEST PUSH0 DUP2 SWAP1 POP SWAP2 SWAP1 POP JUMP JUMPDEST PUSH2 0xEF DUP2 PUSH2 0xDD JUMP JUMPDEST DUP2 EQ PUSH2 0xF9 JUMPI PUSH0 DUP1 REVERT JUMPDEST POP JUMP JUMPDEST PUSH0 DUP2 MLOAD SWAP1 POP PUSH2 0x10A DUP2 PUSH2 0xE6 JUMP JUMPDEST SWAP3 SWAP2 POP POP JUMP JUMPDEST PUSH0 DUP1 PUSH1 0x40 DUP4 DUP6 SUB SLT ISZERO PUSH2 0x126 JUMPI PUSH2 0x125 PUSH2 0x7F JUMP JUMPDEST JUMPDEST PUSH0 PUSH2 0x133 DUP6 DUP3 DUP7 ADD PUSH2 0xC9 JUMP JUMPDEST SWAP3 POP POP PUSH1 0x20 PUSH2 0x144 DUP6 DUP3 DUP7 ADD PUSH2 0xFC JUMP JUMPDEST SWAP2 POP POP SWAP3 POP SWAP3 SWAP1 POP JUMP JUMPDEST PUSH2 0x999 DUP1 PUSH2 0x15B PUSH0 CODECOPY PUSH0 RETURN INVALID PUSH1 0x80 PUSH1 0x40 MSTORE CALLVALUE DUP1 ISZERO PUSH2 0xF JUMPI PUSH0 DUP1 REVERT JUMPDEST POP PUSH1 0x4 CALLDATASIZE LT PUSH2 0x34 JUMPI PUSH0 CALLDATALOAD PUSH1 0xE0 SHR DUP1 PUSH4 0x5B885ED7 EQ PUSH2 0x38 JUMPI DUP1 PUSH4 0x9ECFB3DD EQ PUSH2 0x54 JUMPI JUMPDEST PUSH0 DUP1 REVERT JUMPDEST PUSH2 0x52 PUSH1 0x4 DUP1 CALLDATASIZE SUB DUP2 ADD SWAP1 PUSH2 0x4D SWAP2 SWAP1 PUSH2 0x585 JUMP JUMPDEST PUSH2 0x72 JUMP JUMPDEST STOP JUMPDEST PUSH2 0x5C PUSH2 0x2F7 JUMP JUMPDEST PUSH1 0x40 MLOAD PUSH2 0x69 SWAP2 SWAP1 PUSH2 0x66B JUMP JUMPDEST PUSH1 0x40 MLOAD DUP1 SWAP2 SUB SWAP1 RETURN JUMPDEST PUSH2 0x7F DUP3 PUSH1 0x3 SLOAD DUP4 PUSH2 0x31C JUMP JUMPDEST PUSH2 0xBE JUMPI PUSH1 0x40 MLOAD PUSH32 0x8C379A000000000000000000000000000000000000000000000000000000000 DUP2 MSTORE PUSH1 0x4 ADD PUSH2 0xB5 SWAP1 PUSH2 0x6DE JUMP JUMPDEST PUSH1 0x40 MLOAD DUP1 SWAP2 SUB SWAP1 REVERT JUMPDEST PUSH0 DUP1 PUSH0 CALLER PUSH20 0xFFFFFFFFFFFFFFFFFFFFFFFFFFFFFFFFFFFFFFFF AND PUSH20 0xFFFFFFFFFFFFFFFFFFFFFFFFFFFFFFFFFFFFFFFF AND DUP2 MSTORE PUSH1 0x20 ADD SWAP1 DUP2 MSTORE PUSH1 0x20 ADD PUSH0 KECCAK256 SLOAD EQ PUSH2 0x13C JUMPI PUSH1 0x40 MLOAD PUSH32 0x8C379A000000000000000000000000000000000000000000000000000000000 DUP2 MSTORE PUSH1 0x4 ADD PUSH2 0x133 SWAP1 PUSH2 0x746 JUMP JUMPDEST PUSH1 0x40 MLOAD DUP1 SWAP2 SUB SWAP1 REVERT JUMPDEST PUSH1 0x64 PUSH1 0x1 SLOAD LT PUSH2 0x181 JUMPI PUSH1 0x40 MLOAD PUSH32 0x8C379A000000000000000000000000000000000000000000000000000000000 DUP2 MSTORE PUSH1 0x4 ADD PUSH2 0x178 SWAP1 PUSH2 0x7D4 JUMP JUMPDEST PUSH1 0x40 MLOAD DUP1 SWAP2 SUB SWAP1 REVERT JUMPDEST PUSH2 0x3E8 DUP4 GT ISZERO PUSH2 0x1C6 JUMPI PUSH1 0x40 MLOAD PUSH32 0x8C379A000000000000000000000000000000000000000000000000000000000 DUP2 MSTORE PUSH1 0x4 ADD PUSH2 0x1BD SWAP1 PUSH2 0x862 JUMP JUMPDEST PUSH1 0x40 MLOAD DUP1 SWAP2 SUB SWAP1 REVERT JUMPDEST DUP3 PUSH0 DUP1 CALLER PUSH20 0xFFFFFFFFFFFFFFFFFFFFFFFFFFFFFFFFFFFFFFFF AND PUSH20 0xFFFFFFFFFFFFFFFFFFFFFFFFFFFFFFFFFFFFFFFF AND DUP2 MSTORE PUSH1 0x20 ADD SWAP1 DUP2 MSTORE PUSH1 0x20 ADD PUSH0 KECCAK256 PUSH0 DUP3 DUP3 SLOAD PUSH2 0x211 SWAP2 SWAP1 PUSH2 0x8AD JUMP JUMPDEST SWAP3 POP POP DUP2 SWAP1 SSTORE POP PUSH1 0x1 DUP1 PUSH0 DUP3 DUP3 SLOAD PUSH2 0x229 SWAP2 SWAP1 PUSH2 0x8AD JUMP JUMPDEST SWAP3 POP POP DUP2 SWAP1 SSTORE POP PUSH1 0x2 PUSH0 SWAP1 SLOAD SWAP1 PUSH2 0x100 EXP SWAP1 DIV PUSH20 0xFFFFFFFFFFFFFFFFFFFFFFFFFFFFFFFFFFFFFFFF AND PUSH20 0xFFFFFFFFFFFFFFFFFFFFFFFFFFFFFFFFFFFFFFFF AND PUSH4 0x40C10F19 CALLER DUP6 PUSH1 0x40 MLOAD DUP4 PUSH4 0xFFFFFFFF AND PUSH1 0xE0 SHL DUP2 MSTORE PUSH1 0x4 ADD PUSH2 0x28C SWAP3 SWAP2 SWAP1 PUSH2 0x90F JUMP JUMPDEST PUSH0 PUSH1 0x40 MLOAD DUP1 DUP4 SUB DUP2 PUSH0 DUP8 DUP1 EXTCODESIZE ISZERO DUP1 ISZERO PUSH2 0x2A3 JUMPI PUSH0 DUP1 REVERT JUMPDEST POP GAS CALL ISZERO DUP1 ISZERO PUSH2 0x2B5 JUMPI RETURNDATASIZE PUSH0 DUP1 RETURNDATACOPY RETURNDATASIZE PUSH0 REVERT JUMPDEST POP POP POP POP PUSH32 0x30385C845B448A36257A6A1716E6AD2E1BC2CBE333CDE1E69FE849AD6511ADFE CALLER DUP5 PUSH1 0x40 MLOAD PUSH2 0x2EA SWAP3 SWAP2 SWAP1 PUSH2 0x90F JUMP JUMPDEST PUSH1 0x40 MLOAD DUP1 SWAP2 SUB SWAP1 LOG1 POP POP POP JUMP JUMPDEST PUSH1 0x2 PUSH0 SWAP1 SLOAD SWAP1 PUSH2 0x100 EXP SWAP1 DIV PUSH20 0xFFFFFFFFFFFFFFFFFFFFFFFFFFFFFFFFFFFFFFFF AND DUP2 JUMP JUMPDEST PUSH0 DUP3 PUSH2 0x328 DUP6 DUP5 PUSH2 0x332 JUMP JUMPDEST EQ SWAP1 POP SWAP4 SWAP3 POP POP POP JUMP JUMPDEST PUSH0 DUP1 DUP3 SWAP1 POP PUSH0 JUMPDEST DUP5 MLOAD DUP2 LT ISZERO PUSH2 0x375 JUMPI PUSH2 0x366 DUP3 DUP7 DUP4 DUP2 MLOAD DUP2 LT PUSH2 0x359 JUMPI PUSH2 0x358 PUSH2 0x936 JUMP JUMPDEST JUMPDEST PUSH1 0x20 MUL PUSH1 0x20 ADD ADD MLOAD PUSH2 0x380 JUMP JUMPDEST SWAP2 POP DUP1 DUP1 PUSH1 0x1 ADD SWAP2 POP POP PUSH2 0x339 JUMP JUMPDEST POP DUP1 SWAP2 POP POP SWAP3 SWAP2 POP POP JUMP JUMPDEST PUSH0 DUP2 DUP4 LT PUSH2 0x397 JUMPI PUSH2 0x392 DUP3 DUP5 PUSH2 0x3AA JUMP JUMPDEST PUSH2 0x3A2 JUMP JUMPDEST PUSH2 0x3A1 DUP4 DUP4 PUSH2 0x3AA JUMP JUMPDEST JUMPDEST SWAP1 POP SWAP3 SWAP2 POP POP JUMP JUMPDEST PUSH0 DUP3 PUSH0 MSTORE DUP2 PUSH1 0x20 MSTORE PUSH1 0x40 PUSH0 KECCAK256 SWAP1 POP SWAP3 SWAP2 POP POP JUMP JUMPDEST PUSH0 PUSH1 0x40 MLOAD SWAP1 POP SWAP1 JUMP JUMPDEST PUSH0 DUP1 REVERT JUMPDEST PUSH0 DUP1 REVERT JUMPDEST PUSH0 DUP2 SWAP1 POP SWAP2 SWAP1 POP JUMP JUMPDEST PUSH2 0x3E1 DUP2 PUSH2 0x3CF JUMP JUMPDEST DUP2 EQ PUSH2 0x3EB JUMPI PUSH0 DUP1 REVERT JUMPDEST POP JUMP JUMPDEST PUSH0 DUP2 CALLDATALOAD SWAP1 POP PUSH2 0x3FC DUP2 PUSH2 0x3D8 JUMP JUMPDEST SWAP3 SWAP2 POP POP JUMP JUMPDEST PUSH0 DUP1 REVERT JUMPDEST PUSH0 PUSH1 0x1F NOT PUSH1 0x1F DUP4 ADD AND SWAP1 POP SWAP2 SWAP1 POP JUMP JUMPDEST PUSH32 0x4E487B7100000000000000000000000000000000000000000000000000000000 PUSH0 MSTORE PUSH1 0x41 PUSH1 0x4 MSTORE PUSH1 0x24 PUSH0 REVERT JUMPDEST PUSH2 0x44C DUP3 PUSH2 0x406 JUMP JUMPDEST DUP2 ADD DUP2 DUP2 LT PUSH8 0xFFFFFFFFFFFFFFFF DUP3 GT OR ISZERO PUSH2 0x46B JUMPI PUSH2 0x46A PUSH2 0x416 JUMP JUMPDEST JUMPDEST DUP1 PUSH1 0x40 MSTORE POP POP POP JUMP JUMPDEST PUSH0 PUSH2 0x47D PUSH2 0x3BE JUMP JUMPDEST SWAP1 POP PUSH2 0x489 DUP3 DUP3 PUSH2 0x443 JUMP JUMPDEST SWAP2 SWAP1 POP JUMP JUMPDEST PUSH0 PUSH8 0xFFFFFFFFFFFFFFFF DUP3 GT ISZERO PUSH2 0x4A8 JUMPI PUSH2 0x4A7 PUSH2 0x416 JUMP JUMPDEST JUMPDEST PUSH1 0x20 DUP3 MUL SWAP1 POP PUSH1 0x20 DUP2 ADD SWAP1 POP SWAP2 SWAP1 POP JUMP JUMPDEST PUSH0 DUP1 REVERT JUMPDEST PUSH0 DUP2 SWAP1 POP SWAP2 SWAP1 POP JUMP JUMPDEST PUSH2 0x4CF DUP2 PUSH2 0x4BD JUMP JUMPDEST DUP2 EQ PUSH2 0x4D9 JUMPI PUSH0 DUP1 REVERT JUMPDEST POP JUMP JUMPDEST PUSH0 DUP2 CALLDATALOAD SWAP1 POP PUSH2 0x4EA DUP2 PUSH2 0x4C6 JUMP JUMPDEST SWAP3 SWAP2 POP POP JUMP JUMPDEST PUSH0 PUSH2 0x502 PUSH2 0x4FD DUP5 PUSH2 0x48E JUMP JUMPDEST PUSH2 0x474 JUMP JUMPDEST SWAP1 POP DUP1 DUP4 DUP3 MSTORE PUSH1 0x20 DUP3 ADD SWAP1 POP PUSH1 0x20 DUP5 MUL DUP4 ADD DUP6 DUP2 GT ISZERO PUSH2 0x525 JUMPI PUSH2 0x524 PUSH2 0x4B9 JUMP JUMPDEST JUMPDEST DUP4 JUMPDEST DUP2 DUP2 LT ISZERO PUSH2 0x54E JUMPI DUP1 PUSH2 0x53A DUP9 DUP3 PUSH2 0x4DC JUMP JUMPDEST DUP5 MSTORE PUSH1 0x20 DUP5 ADD SWAP4 POP POP PUSH1 0x20 DUP2 ADD SWAP1 POP PUSH2 0x527 JUMP JUMPDEST POP POP POP SWAP4 SWAP3 POP POP POP JUMP JUMPDEST PUSH0 DUP3 PUSH1 0x1F DUP4 ADD SLT PUSH2 0x56C JUMPI PUSH2 0x56B PUSH2 0x402 JUMP JUMPDEST JUMPDEST DUP2 CALLDATALOAD PUSH2 0x57C DUP5 DUP3 PUSH1 0x20 DUP7 ADD PUSH2 0x4F0 JUMP JUMPDEST SWAP2 POP POP SWAP3 SWAP2 POP POP JUMP JUMPDEST PUSH0 DUP1 PUSH0 PUSH1 0x60 DUP5 DUP7 SUB SLT ISZERO PUSH2 0x59C JUMPI PUSH2 0x59B PUSH2 0x3C7 JUMP JUMPDEST JUMPDEST PUSH0 PUSH2 0x5A9 DUP7 DUP3 DUP8 ADD PUSH2 0x3EE JUMP JUMPDEST SWAP4 POP POP PUSH1 0x20 DUP5 ADD CALLDATALOAD PUSH8 0xFFFFFFFFFFFFFFFF DUP2 GT ISZERO PUSH2 0x5CA JUMPI PUSH2 0x5C9 PUSH2 0x3CB JUMP JUMPDEST JUMPDEST PUSH2 0x5D6 DUP7 DUP3 DUP8 ADD PUSH2 0x558 JUMP JUMPDEST SWAP3 POP POP PUSH1 0x40 PUSH2 0x5E7 DUP7 DUP3 DUP8 ADD PUSH2 0x4DC JUMP JUMPDEST SWAP2 POP POP SWAP3 POP SWAP3 POP SWAP3 JUMP JUMPDEST PUSH0 PUSH20 0xFFFFFFFFFFFFFFFFFFFFFFFFFFFFFFFFFFFFFFFF DUP3 AND SWAP1 POP SWAP2 SWAP1 POP JUMP JUMPDEST PUSH0 DUP2 SWAP1 POP SWAP2 SWAP1 POP JUMP JUMPDEST PUSH0 PUSH2 0x633 PUSH2 0x62E PUSH2 0x629 DUP5 PUSH2 0x5F1 JUMP JUMPDEST PUSH2 0x610 JUMP JUMPDEST PUSH2 0x5F1 JUMP JUMPDEST SWAP1 POP SWAP2 SWAP1 POP JUMP JUMPDEST PUSH0 PUSH2 0x644 DUP3 PUSH2 0x619 JUMP JUMPDEST SWAP1 POP SWAP2 SWAP1 POP JUMP JUMPDEST PUSH0 PUSH2 0x655 DUP3 PUSH2 0x63A JUMP JUMPDEST SWAP1 POP SWAP2 SWAP1 POP JUMP JUMPDEST PUSH2 0x665 DUP2 PUSH2 0x64B JUMP JUMPDEST DUP3 MSTORE POP POP JUMP JUMPDEST PUSH0 PUSH1 0x20 DUP3 ADD SWAP1 POP PUSH2 0x67E PUSH0 DUP4 ADD DUP5 PUSH2 0x65C JUMP JUMPDEST SWAP3 SWAP2 POP POP JUMP JUMPDEST PUSH0 DUP3 DUP3 MSTORE PUSH1 0x20 DUP3 ADD SWAP1 POP SWAP3 SWAP2 POP POP JUMP JUMPDEST PUSH32 0x6E6F7420696C6C656769626C6520000000000000000000000000000000000000 PUSH0 DUP3 ADD MSTORE POP JUMP JUMPDEST PUSH0 PUSH2 0x6C8 PUSH1 0xE DUP4 PUSH2 0x684 JUMP JUMPDEST SWAP2 POP PUSH2 0x6D3 DUP3 PUSH2 0x694 JUMP JUMPDEST PUSH1 0x20 DUP3 ADD SWAP1 POP SWAP2 SWAP1 POP JUMP JUMPDEST PUSH0 PUSH1 0x20 DUP3 ADD SWAP1 POP DUP2 DUP2 SUB PUSH0 DUP4 ADD MSTORE PUSH2 0x6F5 DUP2 PUSH2 0x6BC JUMP JUMPDEST SWAP1 POP SWAP2 SWAP1 POP JUMP JUMPDEST PUSH32 0x616C7265616479206D696E746564000000000000000000000000000000000000 PUSH0 DUP3 ADD MSTORE POP JUMP JUMPDEST PUSH0 PUSH2 0x730 PUSH1 0xE DUP4 PUSH2 0x684 JUMP JUMPDEST SWAP2 POP PUSH2 0x73B DUP3 PUSH2 0x6FC JUMP JUMPDEST PUSH1 0x20 DUP3 ADD SWAP1 POP SWAP2 SWAP1 POP JUMP JUMPDEST PUSH0 PUSH1 0x20 DUP3 ADD SWAP1 POP DUP2 DUP2 SUB PUSH0 DUP4 ADD MSTORE PUSH2 0x75D DUP2 PUSH2 0x724 JUMP JUMPDEST SWAP1 POP SWAP2 SWAP1 POP JUMP JUMPDEST PUSH32 0x746865206E756D626572206F6620757365727320657863656564732074686520 PUSH0 DUP3 ADD MSTORE PUSH32 0x6C696D6974000000000000000000000000000000000000000000000000000000 PUSH1 0x20 DUP3 ADD MSTORE POP JUMP JUMPDEST PUSH0 PUSH2 0x7BE PUSH1 0x25 DUP4 PUSH2 0x684 JUMP JUMPDEST SWAP2 POP PUSH2 0x7C9 DUP3 PUSH2 0x764 JUMP JUMPDEST PUSH1 0x40 DUP3 ADD SWAP1 POP SWAP2 SWAP1 POP JUMP JUMPDEST PUSH0 PUSH1 0x20 DUP3 ADD SWAP1 POP DUP2 DUP2 SUB PUSH0 DUP4 ADD MSTORE PUSH2 0x7EB DUP2 PUSH2 0x7B2 JUMP JUMPDEST SWAP1 POP SWAP2 SWAP1 POP JUMP JUMPDEST PUSH32 0x746865206D696E74696E67206C696D69742070657220706572736F6E20686173 PUSH0 DUP3 ADD MSTORE PUSH32 0x206265656E206578636565646564000000000000000000000000000000000000 PUSH1 0x20 DUP3 ADD MSTORE POP JUMP JUMPDEST PUSH0 PUSH2 0x84C PUSH1 0x2E DUP4 PUSH2 0x684 JUMP JUMPDEST SWAP2 POP PUSH2 0x857 DUP3 PUSH2 0x7F2 JUMP JUMPDEST PUSH1 0x40 DUP3 ADD SWAP1 POP SWAP2 SWAP1 POP JUMP JUMPDEST PUSH0 PUSH1 0x20 DUP3 ADD SWAP1 POP DUP2 DUP2 SUB PUSH0 DUP4 ADD MSTORE PUSH2 0x879 DUP2 PUSH2 0x840 JUMP JUMPDEST SWAP1 POP SWAP2 SWAP1 POP JUMP JUMPDEST PUSH32 0x4E487B7100000000000000000000000000000000000000000000000000000000 PUSH0 MSTORE PUSH1 0x11 PUSH1 0x4 MSTORE PUSH1 0x24 PUSH0 REVERT JUMPDEST PUSH0 PUSH2 0x8B7 DUP3 PUSH2 0x3CF JUMP JUMPDEST SWAP2 POP PUSH2 0x8C2 DUP4 PUSH2 0x3CF JUMP JUMPDEST SWAP3 POP DUP3 DUP3 ADD SWAP1 POP DUP1 DUP3 GT ISZERO PUSH2 0x8DA JUMPI PUSH2 0x8D9 PUSH2 0x880 JUMP JUMPDEST JUMPDEST SWAP3 SWAP2 POP POP JUMP JUMPDEST PUSH0 PUSH2 0x8EA DUP3 PUSH2 0x5F1 JUMP JUMPDEST SWAP1 POP SWAP2 SWAP1 POP JUMP JUMPDEST PUSH2 0x8FA DUP2 PUSH2 0x8E0 JUMP JUMPDEST DUP3 MSTORE POP POP JUMP JUMPDEST PUSH2 0x909 DUP2 PUSH2 0x3CF JUMP JUMPDEST DUP3 MSTORE POP POP JUMP JUMPDEST PUSH0 PUSH1 0x40 DUP3 ADD SWAP1 POP PUSH2 0x922 PUSH0 DUP4 ADD DUP6 PUSH2 0x8F1 JUMP JUMPDEST PUSH2 0x92F PUSH1 0x20 DUP4 ADD DUP5 PUSH2 0x900 JUMP JUMPDEST SWAP4 SWAP3 POP POP POP JUMP JUMPDEST PUSH32 0x4E487B7100000000000000000000000000000000000000000000000000000000 PUSH0 MSTORE PUSH1 0x32 PUSH1 0x4 MSTORE PUSH1 0x24 PUSH0 REVERT INVALID LOG2 PUSH5 0x6970667358 0x22 SLT KECCAK256 0x24 0xF7 0x28 0x25 0xDA DUP9 0x4A 0xEA STATICCALL 0xBA 0xBE 0xDD SWAP10 0xDD EXTCODECOPY 0xD8 CALLDATACOPY 0xD7 LOG0 0xAA SELFDESTRUCT PUSH17 0x22DB57D5384A157B94DB64736F6C634300 ADDMOD AND STOP CALLER "
		},
		"gasEstimates": {
			"creation": {
				"codeDepositCost": "491400",
				"executionCost": "infinite",
				"totalCost": "infinite"
			},
			"external": {
				"airToken()": "infinite",
				"mint(uint256,bytes32[],bytes32)": "infinite"
			}
		},
		"methodIdentifiers": {
			"airToken()": "9ecfb3dd",
			"mint(uint256,bytes32[],bytes32)": "5b885ed7"
		}
	},
	"abi": [
		{
			"inputs": [
				{
					"internalType": "address",
					"name": "_airToken",
					"type": "address"
				},
				{
					"internalType": "bytes32",
					"name": "_root",
					"type": "bytes32"
				}
			],
			"stateMutability": "nonpayable",
			"type": "constructor"
		},
		{
			"anonymous": false,
			"inputs": [
				{
					"indexed": false,
					"internalType": "address",
					"name": "user",
					"type": "address"
				},
				{
					"indexed": false,
					"internalType": "uint256",
					"name": "amount",
					"type": "uint256"
				}
			],
			"name": "Minted",
			"type": "event"
		},
		{
			"inputs": [],
			"name": "airToken",
			"outputs": [
				{
					"internalType": "contract AirToken",
					"name": "",
					"type": "address"
				}
			],
			"stateMutability": "view",
			"type": "function"
		},
		{
			"inputs": [
				{
					"internalType": "uint256",
					"name": "_amount",
					"type": "uint256"
				},
				{
					"internalType": "bytes32[]",
					"name": "_proof",
					"type": "bytes32[]"
				},
				{
					"internalType": "bytes32",
					"name": "_leaf",
					"type": "bytes32"
				}
			],
			"name": "mint",
			"outputs": [],
			"stateMutability": "nonpayable",
			"type": "function"
		}
	]
}